{
    "contractName": "IndexPortal",
    "abi": [
        {
            "inputs": [],
            "stateMutability": "payable",
            "type": "constructor"
        },
        {
            "anonymous": false,
            "inputs": [
                {
                    "indexed": true,
                    "internalType": "address",
                    "name": "indexer",
                    "type": "address"
                },
                {
                    "indexed": false,
                    "internalType": "uint256",
                    "name": "timestamp",
                    "type": "uint256"
                },
                {
                    "indexed": false,
                    "internalType": "string",
                    "name": "url",
                    "type": "string"
                },
                {
                    "indexed": false,
                    "internalType": "string",
                    "name": "domain",
                    "type": "string"
                },
                {
                    "indexed": false,
                    "internalType": "string",
                    "name": "sitename",
                    "type": "string"
                },
                {
                    "indexed": false,
                    "internalType": "string",
                    "name": "description",
                    "type": "string"
                },
                {
                    "indexed": false,
                    "internalType": "string[]",
                    "name": "tags",
                    "type": "string[]"
                },
                {
                    "indexed": false,
                    "internalType": "address[]",
                    "name": "approvers",
                    "type": "address[]"
                },
                {
                    "indexed": false,
                    "internalType": "address[]",
                    "name": "rejectors",
                    "type": "address[]"
                }
            ],
            "name": "NewIndex",
            "type": "event"
        },
        {
            "anonymous": false,
            "inputs": [
                {
                    "indexed": true,
                    "internalType": "address",
                    "name": "previousOwner",
                    "type": "address"
                },
                {
                    "indexed": true,
                    "internalType": "address",
                    "name": "newOwner",
                    "type": "address"
                }
            ],
            "name": "OwnershipTransferred",
            "type": "event"
        },
        {
            "anonymous": false,
            "inputs": [
                {
                    "indexed": false,
                    "internalType": "address",
                    "name": "account",
                    "type": "address"
                }
            ],
            "name": "Paused",
            "type": "event"
        },
        {
            "anonymous": false,
            "inputs": [
                {
                    "indexed": false,
                    "internalType": "address",
                    "name": "account",
                    "type": "address"
                }
            ],
            "name": "Unpaused",
            "type": "event"
        },
        {
            "inputs": [
                {
                    "internalType": "uint256",
                    "name": "_indexId",
                    "type": "uint256"
                }
            ],
            "name": "approve",
            "outputs": [],
            "stateMutability": "nonpayable",
            "type": "function"
        },
        {
            "inputs": [],
            "name": "checkValidator",
            "outputs": [
                {
                    "internalType": "bool",
                    "name": "",
                    "type": "bool"
                }
            ],
            "stateMutability": "view",
            "type": "function"
        },
        {
            "inputs": [],
            "name": "getAllIndexes",
            "outputs": [
                {
                    "components": [
                        {
                            "internalType": "address",
                            "name": "indexer",
                            "type": "address"
                        },
                        {
                            "internalType": "uint256",
                            "name": "timestamp",
                            "type": "uint256"
                        },
                        {
                            "internalType": "string",
                            "name": "url",
                            "type": "string"
                        },
                        {
                            "internalType": "string",
                            "name": "domain",
                            "type": "string"
                        },
                        {
                            "internalType": "string",
                            "name": "sitename",
                            "type": "string"
                        },
                        {
                            "internalType": "string",
                            "name": "description",
                            "type": "string"
                        },
                        {
                            "internalType": "string[]",
                            "name": "tags",
                            "type": "string[]"
                        },
                        {
                            "internalType": "address[]",
                            "name": "approvers",
                            "type": "address[]"
                        },
                        {
                            "internalType": "address[]",
                            "name": "rejectors",
                            "type": "address[]"
                        }
                    ],
                    "internalType": "struct IndexPortal.SiteIndex[]",
                    "name": "",
                    "type": "tuple[]"
                }
            ],
            "stateMutability": "view",
            "type": "function"
        },
        {
            "inputs": [],
            "name": "getAllValidators",
            "outputs": [
                {
                    "internalType": "address[]",
                    "name": "",
                    "type": "address[]"
                }
            ],
            "stateMutability": "view",
            "type": "function"
        },
        {
            "inputs": [],
            "name": "getIndexCount",
            "outputs": [
                {
                    "internalType": "uint256",
                    "name": "",
                    "type": "uint256"
                }
            ],
            "stateMutability": "view",
            "type": "function"
        },
        {
            "inputs": [
                {
                    "internalType": "string",
                    "name": "_url",
                    "type": "string"
                },
                {
                    "internalType": "string",
                    "name": "_domain",
                    "type": "string"
                },
                {
                    "internalType": "string",
                    "name": "_sitename",
                    "type": "string"
                },
                {
                    "internalType": "string",
                    "name": "_description",
                    "type": "string"
                },
                {
                    "internalType": "string[]",
                    "name": "_tags",
                    "type": "string[]"
                },
                {
                    "internalType": "address[]",
                    "name": "_approvers",
                    "type": "address[]"
                },
                {
                    "internalType": "address[]",
                    "name": "_rejectors",
                    "type": "address[]"
                }
            ],
            "name": "index",
            "outputs": [],
            "stateMutability": "nonpayable",
            "type": "function"
        },
        {
            "inputs": [
                {
                    "internalType": "uint256",
                    "name": "",
                    "type": "uint256"
                }
            ],
            "name": "indexes",
            "outputs": [
                {
                    "internalType": "address",
                    "name": "indexer",
                    "type": "address"
                },
                {
                    "internalType": "uint256",
                    "name": "timestamp",
                    "type": "uint256"
                },
                {
                    "internalType": "string",
                    "name": "url",
                    "type": "string"
                },
                {
                    "internalType": "string",
                    "name": "domain",
                    "type": "string"
                },
                {
                    "internalType": "string",
                    "name": "sitename",
                    "type": "string"
                },
                {
                    "internalType": "string",
                    "name": "description",
                    "type": "string"
                }
            ],
            "stateMutability": "view",
            "type": "function"
        },
        {
            "inputs": [
                {
                    "internalType": "address",
                    "name": "",
                    "type": "address"
                }
            ],
            "name": "isValidator",
            "outputs": [
                {
                    "internalType": "bool",
                    "name": "",
                    "type": "bool"
                }
            ],
            "stateMutability": "view",
            "type": "function"
        },
        {
            "inputs": [],
            "name": "owner",
            "outputs": [
                {
                    "internalType": "address",
                    "name": "",
                    "type": "address"
                }
            ],
            "stateMutability": "view",
            "type": "function"
        },
        {
            "inputs": [],
            "name": "paused",
            "outputs": [
                {
                    "internalType": "bool",
                    "name": "",
                    "type": "bool"
                }
            ],
            "stateMutability": "view",
            "type": "function"
        },
        {
            "inputs": [
                {
                    "internalType": "uint256",
                    "name": "_indexId",
                    "type": "uint256"
                }
            ],
            "name": "reject",
            "outputs": [],
            "stateMutability": "nonpayable",
            "type": "function"
        },
        {
            "inputs": [],
            "name": "renounceOwnership",
            "outputs": [],
            "stateMutability": "nonpayable",
            "type": "function"
        },
        {
            "inputs": [
                {
                    "internalType": "address",
                    "name": "newOwner",
                    "type": "address"
                }
            ],
            "name": "transferOwnership",
            "outputs": [],
            "stateMutability": "nonpayable",
            "type": "function"
        },
        {
            "inputs": [
                {
                    "internalType": "address",
                    "name": "_account",
                    "type": "address"
                }
            ],
            "name": "upsertValidator",
            "outputs": [],
            "stateMutability": "nonpayable",
            "type": "function"
        }
    ],
    "bytecode": "60806040526200000f336200006f565b6000805460ff60a01b1916905560408051808201909152601981527f57652068617665206265656e20636f6e7374727563746564210000000000000060208083019190915262000069919062001223620000bf821b17901c565b62000186565b600080546001600160a01b038381166001600160a01b0319831681178455604051919092169283917f8be0079c531659141344cd1fd0a4f28419497f9722a3daafe3b4186f6b6457e09190a35050565b6200010a81604051602401620000d691906200012e565b60408051601f198184030181529190526020810180516001600160e01b0390811663104c13eb60e21b179091526200010d16565b50565b80516a636f6e736f6c652e6c6f67602083016000808483855afa5050505050565b600060208083528351808285015260005b818110156200015d578581018301518582016040015282016200013f565b8181111562000170576000604083870101525b50601f01601f1916929092016040019392505050565b611d3580620001966000396000f3fe608060405234801561001057600080fd5b50600436106100ea5760003560e01c8063b759f9541161008c578063f2fde38b11610066578063f2fde38b146101d8578063f3513a37146101eb578063f99695c8146101fa578063facd743b1461020d57600080fd5b8063b759f9541461019c578063b8adaa11146101af578063ec244370146101c257600080fd5b806386b9fd7a116100c857806386b9fd7a1461012f5780638da5cb5b1461014757806392f8eb9414610162578063a2f0a1f21461018757600080fd5b806330465a11146100ef5780635c975abb14610104578063715018a614610127575b600080fd5b6101026100fd366004611522565b610230565b005b600054600160a01b900460ff165b60405190151581526020015b60405180910390f35b610102610287565b3360009081526003602052604090205460ff16610112565b6000546040516001600160a01b03909116815260200161011e565b610175610170366004611544565b6102bd565b60405161011e969594939291906115aa565b61018f610530565b60405161011e91906116b4565b6101026101aa366004611544565b610995565b6101026101bd366004611544565b610bc8565b6101ca610dd9565b60405190815260200161011e565b6101026101e6366004611522565b610e19565b606060405161011e91906117e2565b6101026102083660046119c2565b610eb1565b61011261021b366004611522565b60036020526000908152604090205460ff1681565b6000546001600160a01b031633146102635760405162461bcd60e51b815260040161025a90611add565b60405180910390fd5b6001600160a01b03166000908152600360205260409020805460ff19166001179055565b6000546001600160a01b031633146102b15760405162461bcd60e51b815260040161025a90611add565b6102bb6000611266565b565b600281815481106102cd57600080fd5b60009182526020909120600990910201805460018201546002830180546001600160a01b03909316945090929161030390611b12565b80601f016020809104026020016040519081016040528092919081815260200182805461032f90611b12565b801561037c5780601f106103515761010080835404028352916020019161037c565b820191906000526020600020905b81548152906001019060200180831161035f57829003601f168201915b50505050509080600301805461039190611b12565b80601f01602080910402602001604051908101604052809291908181526020018280546103bd90611b12565b801561040a5780601f106103df5761010080835404028352916020019161040a565b820191906000526020600020905b8154815290600101906020018083116103ed57829003601f168201915b50505050509080600401805461041f90611b12565b80601f016020809104026020016040519081016040528092919081815260200182805461044b90611b12565b80156104985780601f1061046d57610100808354040283529160200191610498565b820191906000526020600020905b81548152906001019060200180831161047b57829003601f168201915b5050505050908060050180546104ad90611b12565b80601f01602080910402602001604051908101604052809291908181526020018280546104d990611b12565b80156105265780601f106104fb57610100808354040283529160200191610526565b820191906000526020600020905b81548152906001019060200180831161050957829003601f168201915b5050505050905086565b60606002805480602002602001604051908101604052809291908181526020016000905b8282101561098c57600084815260209081902060408051610120810182526009860290920180546001600160a01b03168352600181015493830193909352600283018054929392918401916105a890611b12565b80601f01602080910402602001604051908101604052809291908181526020018280546105d490611b12565b80156106215780601f106105f657610100808354040283529160200191610621565b820191906000526020600020905b81548152906001019060200180831161060457829003601f168201915b5050505050815260200160038201805461063a90611b12565b80601f016020809104026020016040519081016040528092919081815260200182805461066690611b12565b80156106b35780601f10610688576101008083540402835291602001916106b3565b820191906000526020600020905b81548152906001019060200180831161069657829003601f168201915b505050505081526020016004820180546106cc90611b12565b80601f01602080910402602001604051908101604052809291908181526020018280546106f890611b12565b80156107455780601f1061071a57610100808354040283529160200191610745565b820191906000526020600020905b81548152906001019060200180831161072857829003601f168201915b5050505050815260200160058201805461075e90611b12565b80601f016020809104026020016040519081016040528092919081815260200182805461078a90611b12565b80156107d75780601f106107ac576101008083540402835291602001916107d7565b820191906000526020600020905b8154815290600101906020018083116107ba57829003601f168201915b5050505050815260200160068201805480602002602001604051908101604052809291908181526020016000905b828210156108b157838290600052602060002001805461082490611b12565b80601f016020809104026020016040519081016040528092919081815260200182805461085090611b12565b801561089d5780601f106108725761010080835404028352916020019161089d565b820191906000526020600020905b81548152906001019060200180831161088057829003601f168201915b505050505081526020019060010190610805565b5050505081526020016007820180548060200260200160405190810160405280929190818152602001828054801561091257602002820191906000526020600020905b81546001600160a01b031681526001909101906020018083116108f4575b505050505081526020016008820180548060200260200160405190810160405280929190818152602001828054801561097457602002820191906000526020600020905b81546001600160a01b03168152600190910190602001808311610956575b50505050508152505081526020019060010190610554565b50505050905090565b3360009081526003602052604090205460ff166109ec5760405162461bcd60e51b81526020600482015260156024820152742cb7ba9030b932903737ba103b30b634b230ba37b960591b604482015260640161025a565b60005b60028281548110610a0257610a02611b4c565b906000526020600020906009020160070180549050811015610a8d57336001600160a01b031660028381548110610a3b57610a3b611b4c565b90600052602060002090600902016007018281548110610a5d57610a5d611b4c565b6000918252602090912001546001600160a01b031603610a7b575050565b80610a8581611b78565b9150506109ef565b5060028181548110610aa157610aa1611b4c565b6000918252602080832060076009909302019190910180546001810182559083529082200180546001600160a01b031916331790555b60028281548110610aea57610aea611b4c565b906000526020600020906009020160080180549050811015610bc357336001600160a01b031660028381548110610b2357610b23611b4c565b90600052602060002090600902016008018281548110610b4557610b45611b4c565b6000918252602090912001546001600160a01b031603610bb15760028281548110610b7257610b72611b4c565b90600052602060002090600902016008018181548110610b9457610b94611b4c565b600091825260209091200180546001600160a01b03191690555050565b80610bbb81611b78565b915050610ad7565b505b50565b3360009081526003602052604090205460ff16610c1f5760405162461bcd60e51b81526020600482015260156024820152742cb7ba9030b932903737ba103b30b634b230ba37b960591b604482015260640161025a565b60005b60028281548110610c3557610c35611b4c565b906000526020600020906009020160080180549050811015610cc057336001600160a01b031660028381548110610c6e57610c6e611b4c565b90600052602060002090600902016008018281548110610c9057610c90611b4c565b6000918252602090912001546001600160a01b031603610cae575050565b80610cb881611b78565b915050610c22565b5060028181548110610cd457610cd4611b4c565b6000918252602080832060086009909302019190910180546001810182559083529082200180546001600160a01b031916331790555b60028281548110610d1d57610d1d611b4c565b906000526020600020906009020160070180549050811015610bc357336001600160a01b031660028381548110610d5657610d56611b4c565b90600052602060002090600902016007018281548110610d7857610d78611b4c565b6000918252602090912001546001600160a01b031603610dc75760028281548110610da557610da5611b4c565b90600052602060002090600902016007018181548110610b9457610b94611b4c565b80610dd181611b78565b915050610d0a565b6000610e12604051806040016040528060138152602001725765206861766520256420696e64657865732160681b8152506001546112b6565b5060015490565b6000546001600160a01b03163314610e435760405162461bcd60e51b815260040161025a90611add565b6001600160a01b038116610ea85760405162461bcd60e51b815260206004820152602660248201527f4f776e61626c653a206e6577206f776e657220697320746865207a65726f206160448201526564647265737360d01b606482015260840161025a565b610bc581611266565b6001806000828254610ec39190611b91565b9091555050604080518082019091526016815275257320696e6465786420772f20646f6d61696e20257360501b6020820152610f009033886112fb565b60408051610120810182523381524260208083019182529282018a8152606083018a90526080830189905260a0830188905260c0830187905260e08301869052610100830185905260028054600181018255600091909152835160099091027f405787fa12a823e0f2b7631cc41b3ba8828b3321ca811111fa75cd3aa3bb5ace810180546001600160a01b03939093166001600160a01b031990931692909217825592517f405787fa12a823e0f2b7631cc41b3ba8828b3321ca811111fa75cd3aa3bb5acf8401559051805193949193611001937f405787fa12a823e0f2b7631cc41b3ba8828b3321ca811111fa75cd3aa3bb5ad001929190910190611368565b506060820151805161101d916003840191602090910190611368565b5060808201518051611039916004840191602090910190611368565b5060a08201518051611055916005840191602090910190611368565b5060c082015180516110719160068401916020909101906113ec565b5060e0820151805161108d916007840191602090910190611445565b5061010082015180516110aa916008840191602090910190611445565b505050336001600160a01b03167ff37a9160b1bda834fb1a7c5fe68c28d041c14796818ca5ab94144dc6b537305f42898989898989896040516110f4989796959493929190611ba9565b60405180910390a2655af3107a4000478111156111705760405162461bcd60e51b815260206004820152603460248201527f547279696e6720746f207769746864726177206d6f7265206d6f6e657920746860448201527330b7103a34329031b7b73a3930b1ba103430b99760611b606482015260840161025a565b604051600090339083908381818185875af1925050503d80600081146111b2576040519150601f19603f3d011682016040523d82523d6000602084013e6111b7565b606091505b50509050806112185760405162461bcd60e51b815260206004820152602760248201527f4661696c656420746f207769746864726177206d6f6e65792066726f6d20636f604482015266373a3930b1ba1760c91b606482015260840161025a565b505050505050505050565b610bc5816040516024016112379190611c8c565b60408051601f198184030181529190526020810180516001600160e01b031663104c13eb60e21b179052611347565b600080546001600160a01b038381166001600160a01b0319831681178455604051919092169283917f8be0079c531659141344cd1fd0a4f28419497f9722a3daafe3b4186f6b6457e09190a35050565b610bc382826040516024016112cc929190611c9f565b60408051601f198184030181529190526020810180516001600160e01b03166309710a9d60e41b179052611347565b61134283838360405160240161131393929190611cc1565b60408051601f198184030181529190526020810180516001600160e01b031663e0e9ad4f60e01b179052611347565b505050565b80516a636f6e736f6c652e6c6f67602083016000808483855afa5050505050565b82805461137490611b12565b90600052602060002090601f01602090048101928261139657600085556113dc565b82601f106113af57805160ff19168380011785556113dc565b828001600101855582156113dc579182015b828111156113dc5782518255916020019190600101906113c1565b506113e892915061149a565b5090565b828054828255906000526020600020908101928215611439579160200282015b828111156114395782518051611429918491602090910190611368565b509160200191906001019061140c565b506113e89291506114af565b8280548282559060005260206000209081019282156113dc579160200282015b828111156113dc57825182546001600160a01b0319166001600160a01b03909116178255602090920191600190910190611465565b5b808211156113e8576000815560010161149b565b808211156113e85760006114c382826114cc565b506001016114af565b5080546114d890611b12565b6000825580601f106114e8575050565b601f016020900490600052602060002090810190610bc5919061149a565b80356001600160a01b038116811461151d57600080fd5b919050565b60006020828403121561153457600080fd5b61153d82611506565b9392505050565b60006020828403121561155657600080fd5b5035919050565b6000815180845260005b8181101561158357602081850181015186830182015201611567565b81811115611595576000602083870101525b50601f01601f19169290920160200192915050565b60018060a01b038716815285602082015260c0604082015260006115d160c083018761155d565b82810360608401526115e3818761155d565b905082810360808401526115f7818661155d565b905082810360a084015261160b818561155d565b9998505050505050505050565b600082825180855260208086019550808260051b84010181860160005b8481101561166357601f1986840301895261165183835161155d565b98840198925090830190600101611635565b5090979650505050505050565b600081518084526020808501945080840160005b838110156116a95781516001600160a01b031687529582019590820190600101611684565b509495945050505050565b60006020808301818452808551808352604092508286019150828160051b87010184880160005b838110156117d457888303603f19018552815180516001600160a01b03168452610120888201518986015287820151818987015261171b8287018261155d565b91505060608083015186830382880152611735838261155d565b9250505060808083015186830382880152611750838261155d565b9250505060a0808301518683038288015261176b838261155d565b9250505060c080830151868303828801526117868382611618565b9250505060e080830151868303828801526117a18382611670565b9250505061010080830151925085820381870152506117c08183611670565b9689019694505050908601906001016116db565b509098975050505050505050565b60208152600061153d6020830184611670565b634e487b7160e01b600052604160045260246000fd5b604051601f8201601f1916810167ffffffffffffffff81118282101715611834576118346117f5565b604052919050565b600082601f83011261184d57600080fd5b813567ffffffffffffffff811115611867576118676117f5565b61187a601f8201601f191660200161180b565b81815284602083860101111561188f57600080fd5b816020850160208301376000918101602001919091529392505050565b600067ffffffffffffffff8211156118c6576118c66117f5565b5060051b60200190565b600082601f8301126118e157600080fd5b813560206118f66118f1836118ac565b61180b565b82815260059290921b8401810191818101908684111561191557600080fd5b8286015b8481101561195557803567ffffffffffffffff8111156119395760008081fd5b6119478986838b010161183c565b845250918301918301611919565b509695505050505050565b600082601f83011261197157600080fd5b813560206119816118f1836118ac565b82815260059290921b840181019181810190868411156119a057600080fd5b8286015b84811015611955576119b581611506565b83529183019183016119a4565b600080600080600080600060e0888a0312156119dd57600080fd5b873567ffffffffffffffff808211156119f557600080fd5b611a018b838c0161183c565b985060208a0135915080821115611a1757600080fd5b611a238b838c0161183c565b975060408a0135915080821115611a3957600080fd5b611a458b838c0161183c565b965060608a0135915080821115611a5b57600080fd5b611a678b838c0161183c565b955060808a0135915080821115611a7d57600080fd5b611a898b838c016118d0565b945060a08a0135915080821115611a9f57600080fd5b611aab8b838c01611960565b935060c08a0135915080821115611ac157600080fd5b50611ace8a828b01611960565b91505092959891949750929550565b6020808252818101527f4f776e61626c653a2063616c6c6572206973206e6f7420746865206f776e6572604082015260600190565b600181811c90821680611b2657607f821691505b602082108103611b4657634e487b7160e01b600052602260045260246000fd5b50919050565b634e487b7160e01b600052603260045260246000fd5b634e487b7160e01b600052601160045260246000fd5b600060018201611b8a57611b8a611b62565b5060010190565b60008219821115611ba457611ba4611b62565b500190565b60006101008a835260208181850152611bc48285018c61155d565b91508382036040850152611bd8828b61155d565b91508382036060850152611bec828a61155d565b91508382036080850152611c00828961155d565b915083820360a08501528187518084528284019150828160051b850101838a0160005b83811015611c5157601f19878403018552611c3f83835161155d565b94860194925090850190600101611c23565b505086810360c0880152611c65818a611670565b94505050505082810360e0840152611c7d8185611670565b9b9a5050505050505050505050565b60208152600061153d602083018461155d565b604081526000611cb2604083018561155d565b90508260208301529392505050565b606081526000611cd4606083018661155d565b6001600160a01b03851660208401528281036040840152611cf5818561155d565b969550505050505056fea2646970667358221220e4e6956d271681ed266f0ca4f61840a94763926c216c1c21438b00922c6b57c964736f6c634300080e0033",
    "sourcePath": "/Users/takuya/web3search/web3search-contract/contracts/IndexPortal.sol",
    "compiler": {
        "name": "solc",
        "version": "0.8.14+commit.80d49f37"
    },
    "functionHashes": {
        "approve(uint256)": "b759f954",
        "checkValidator()": "86b9fd7a",
        "getAllIndexes()": "a2f0a1f2",
        "getAllValidators()": "f3513a37",
        "getIndexCount()": "ec244370",
        "index(string,string,string,string,string[],address[],address[])": "f99695c8",
        "indexes(uint256)": "92f8eb94",
        "isValidator(address)": "facd743b",
        "owner()": "8da5cb5b",
        "paused()": "5c975abb",
        "reject(uint256)": "b8adaa11",
        "renounceOwnership()": "715018a6",
        "transferOwnership(address)": "f2fde38b",
        "upsertValidator(address)": "30465a11"
    },
    "gasEstimates": {
        "creation": {
            "codeDepositCost": "1495400",
            "executionCost": "infinite",
            "totalCost": "infinite"
        },
        "external": {
            "approve(uint256)": "infinite",
            "checkValidator()": "2384",
            "getAllIndexes()": "infinite",
            "getAllValidators()": "infinite",
            "getIndexCount()": "infinite",
            "index(string,string,string,string,string[],address[],address[])": "infinite",
            "indexes(uint256)": "infinite",
            "isValidator(address)": "2608",
            "owner()": "2346",
            "paused()": "2345",
            "reject(uint256)": "infinite",
            "renounceOwnership()": "28182",
            "transferOwnership(address)": "28331",
            "upsertValidator(address)": "26774"
        }
    }
}